:020000040800F2
:1000000000800220F1990008293800082F380008E4
:10001000353800083B38000841380008000000006F
:100020000000000000000000000000004738000849
:1000300055380008000000006338000871380008D7
:10004000419A0008419A0008419A0008419A000824
:10005000419A0008419A0008419A0008419A000814
:10006000419A0008419A0008419A0008419A000804
:10007000419A0008419A0008419A0008419A0008F4
:10008000419A0008419A0008419A0008419A0008E4
:10009000419A0008419A0008419A0008419A0008D4
:1000A000419A0008419A0008419A00087D380008EA
:1000B000419A0008419A000800000000419A000897
:1000C000419A0008419A0008419A0008419A0008A4
:1000D000419A000891380008419A0008419A0008A6
:1000E000419A0008419A000800000000000000004A
:1000F0000000000000000000000000000000000000
:1001000000000000419A000800000000419A000829
:10011000419A000800000000419A00080000000019
:10012000419A0008419A0008419A0008419A000843
:10013000419A0008419A0008419A00080000000016
:10014000419A0008419A0008419A0008419A000823
:10015000419A0008419A0008419A0008419A000813
:10016000419A0008419A0008419A000800000000E6
:1001700000000000419A000800000000000000009C
:10018000419A0008419A0008419A0008419A0008E3
:04019000419A000888
:1001A00010B5054C237833B9044B13B10448AFF3B1
:1001B00000800123237010BDE0010020000000003A
:1001C000C0AC000808B5034B1BB103490348AFF3AB
:1001D000008008BD00000000E4010020C0AC000861
:1001E000034613F8012B002AFBD1181A0138704777
:1001F00001F0FF01102A2BDB10F0070F08D010F8D8
:10020000013B013A8B422DD010F0070F42B3F6D1DB
:10021000F0B441EA012141EA014122F007047FF0F4
:1002200000070023F0E80256083C85EA010586EA4B
:10023000010685FA47F5A3FA87F586FA47F6A5FA87
:1002400087F68EB9EED1F0BC01F0FF0102F0070293
:1002500032B110F8013B013A83EA010313B1F8D13E
:100260000020704701387047002D06BF354603381F
:10027000073815F0010F07D1013015F4807F02BF58
:10028000013015F4C03F0130F0BC0138704700BFA9
:1002900081F0004102E000BF83F0004330B54FEA37
:1002A00041044FEA430594EA050F08BF90EA020FA4
:1002B0001FBF54EA000C55EA020C7FEA645C7FEA37
:1002C000655C00F0E2804FEA5454D4EB5555B8BF5A
:1002D0006D420CDD2C4480EA020281EA030382EACB
:1002E000000083EA010180EA020281EA0303362D5D
:1002F00088BF30BD11F0004F4FEA01314FF4801C30
:100300004CEA113102D0404261EB410113F0004F41
:100310004FEA03334CEA133302D0524263EB4303F8
:1003200094EA050F00F0A780A4F10104D5F1200E96
:100330000DDB02FA0EFC22FA05F2801841F10001F1
:1003400003FA0EF2801843FA05F359410EE0A5F1C5
:1003500020050EF1200E012A03FA0EFC28BF4CF0F6
:10036000020C43FA05F3C01851EBE37101F00045AC
:1003700007D54FF0000EDCF1000C7EEB00006EEBB9
:100380000101B1F5801F1BD3B1F5001F0CD3490843
:100390005FEA30004FEA3C0C04F101044FEA44529A
:1003A00012F5800F80F09A80BCF1004F08BF5FEA21
:1003B000500C50F1000041EB045141EA050130BD01
:1003C0005FEA4C0C404141EB010111F4801FA4F1A4
:1003D0000104E9D191F0000F04BF01460020B1FAF9
:1003E00081F308BF2033A3F10B03B3F120020CDA31
:1003F0000C3208DD02F1140CC2F10C0201FA0CF00F
:1004000021FA02F10CE002F11402D8BFC2F1200C73
:1004100001FA02F120FA0CFCDCBF41EA0C01904029
:10042000E41AA2BF01EB0451294330BD6FEA040472
:100430001F3C1CDA0C340EDC04F11404C4F120025D
:1004400020FA04F001FA02F340EA030021FA04F36F
:1004500045EA030130BDC4F10C04C4F1200220FAC6
:1004600002F001FA04F340EA0300294630BD21FA04
:1004700004F0294630BD94F0000F83F4801306BFCA
:1004800081F480110134013D4EE77FEA645C18BFBE
:100490007FEA655C29D094EA050F08BF90EA020F55
:1004A00005D054EA000C04BF1946104630BD91EA4D
:1004B000030F1EBF0021002030BD5FEA545C05D150
:1004C0004000494128BF41F0004130BD14F580048F
:1004D0003CBF01F5801130BD01F0004545F0FE4103
:1004E00041F470014FF0000030BD7FEA645C1ABF38
:1004F000194610467FEA655C1CBF0B46024650EA6F
:10050000013406BF52EA033591EA030F41F400219A
:1005100030BD00BF90F0000F04BF0021704730B520
:100520004FF4806404F132044FF000054FF00001F5
:1005300050E700BF90F0000F04BF0021704730B5B6
:100540004FF4806404F1320410F0004548BF40428B
:100550004FF000013EE700BF42004FEAE2014FEAE0
:1005600031014FEA02701FBF12F07F4393F07F4FBB
:1005700081F06051704792F0000F14BF93F07F4FED
:10058000704730B54FF4607401F0004521F0004130
:1005900020E700BF50EA010208BF704730B54FF0B6
:1005A00000050AE050EA010208BF704730B511F0BB
:1005B000004502D5404261EB41014FF4806404F1F3
:1005C00032045FEA915C3FF4DCAE4FF003025FEA75
:1005D000DC0C18BF03325FEADC0C18BF033202EBFD
:1005E000DC02C2F1200300FA03FC20FA02F001FA57
:1005F00003FE40EA0E0021FA02F11444C1E600BFF6
:1006000070B54FF0FF0C4CF4E06C1CEA11541DBFA8
:100610001CEA135594EA0C0F95EA0C0F00F0DEF873
:100620002C4481EA030621EA4C5123EA4C5350EA58
:10063000013518BF52EA033541F4801143F48013A9
:1006400038D0A0FB02CE4FF00005E1FB02E506F03A
:100650000042E0FB03E54FF00006E1FB03569CF08F
:10066000000F18BF4EF0010EA4F1FF04B6F5007F95
:1006700064F5407404D25FEA4E0E6D4146EB060607
:1006800042EAC62141EA55514FEAC52040EA5E5090
:100690004FEACE2EB4F1FD0C88BFBCF5E06F1ED83A
:1006A000BEF1004F08BF5FEA500E50F1000041EB71
:1006B000045170BD06F0004646EA010140EA02001E
:1006C00081EA0301B4EB5C04C2BFD4EB0C0541EA40
:1006D000045170BD41F480114FF0000E013C00F355
:1006E000AB8014F1360FDEBF002001F0004170BD79
:1006F000C4F10004203C35DA0C341BDC04F1140492
:10070000C4F1200500FA05F320FA04F001FA05F21D
:1007100040EA020001F0004221F0004110EBD370EA
:1007200021FA04F642EB06015EEA430E08BF20EA16
:10073000D37070BDC4F10C04C4F1200500FA04F3B9
:1007400020FA05F001FA04F240EA020001F000414B
:1007500010EBD37041F100015EEA430E08BF20EABE
:10076000D37070BDC4F1200500FA05F24EEA020E06
:1007700020FA04F301FA05F243EA020321FA04F035
:1007800001F0004121FA04F220EA020000EBD370EC
:100790005EEA430E08BF20EAD37070BD94F0000FEC
:1007A0000FD101F00046400041EB010111F4801F20
:1007B00008BF013CF7D041EA060195F0000F18BFD1
:1007C000704703F00046520043EB030313F4801F0D
:1007D00008BF013DF7D043EA0603704794EA0C0FC7
:1007E0000CEA135518BF95EA0C0F0CD050EA4106DD
:1007F00018BF52EA4306D1D181EA030101F000415A
:100800004FF0000070BD50EA410606BF1046194681
:1008100052EA430619D094EA0C0F02D150EA01368D
:1008200013D195EA0C0F05D152EA03361CBF1046CE
:1008300019460AD181EA030101F0004141F0FE416D
:1008400041F470014FF0000070BD41F0FE4141F4F1
:10085000780170BD70B54FF0FF0C4CF4E06C1CEAF1
:1008600011541DBF1CEA135594EA0C0F95EA0C0FA6
:1008700000F0A7F8A4EB050481EA030E52EA033561
:100880004FEA013100F088804FEA03334FF0805582
:1008900045EA131343EA12634FEA022245EA1115AF
:1008A00045EA10654FEA00260EF000419D4208BF60
:1008B000964244F1FD0404F5407402D25B084FEA0D
:1008C0003202B61A65EB03055B084FEA32024FF4B9
:1008D00080104FF4002CB6EB020E75EB030E22BF16
:1008E000B61A754640EA0C005B084FEA3202B6EBD6
:1008F000020E75EB030E22BFB61A754640EA5C0085
:100900005B084FEA3202B6EB020E75EB030E22BF14
:10091000B61A754640EA9C005B084FEA3202B6EB15
:10092000020E75EB030E22BFB61A754640EADC00D4
:1009300055EA060E18D04FEA051545EA16754FEA36
:1009400006164FEAC30343EA52734FEAC2025FEA54
:100950001C1CC0D111F4801F0BD141EA00014FF0E3
:1009600000004FF0004CB6E711F4801F04BF0143B4
:100970000020B4F1FD0C88BFBCF5E06F3FF6AFAED0
:10098000B5EB030C04BFB6EB020C5FEA500C50F160
:10099000000041EB045170BD0EF0004E4EEA1131E3
:1009A00014EB5C04C2BFD4EB0C0541EA045170BDEA
:1009B00041F480114FF0000E013C90E645EA060E2E
:1009C0008DE60CEA135594EA0C0F08BF95EA0C0F5C
:1009D0003FF43BAF94EA0C0F0AD150EA01347FF4A4
:1009E00034AF95EA0C0F7FF425AF104619462CE77B
:1009F00095EA0C0F06D152EA03353FF4FDAE1046DE
:100A0000194622E750EA410618BF52EA43067FF42E
:100A1000C5AE50EA41047FF40DAF52EA43057FF4BE
:100A2000EBAE12E74FF0FF3C06E000BF4FF0010CC9
:100A300002E000BF4FF0010C4DF804CD4FEA410C2D
:100A40007FEA6C5C4FEA430C18BF7FEA6C5C1BD0FA
:100A500001B050EA410C0CBF52EA430C91EA030F7B
:100A600002BF90EA020F0020704710F1000F91EAD8
:100A7000030F58BF994208BF90422CBFD8176FEAA6
:100A8000E37040F0010070474FEA410C7FEA6C5C74
:100A900002D150EA013C07D14FEA430C7FEA6C5C7B
:100AA000D6D152EA033CD3D05DF8040B704700BFA7
:100AB0008446104662468C461946634600E000BFF5
:100AC00001B5FFF7B7FF002848BF10F1000F01BDC7
:100AD0004DF808EDFFF7F4FF0CBF012000205DF892
:100AE00008FB00BF4DF808EDFFF7EAFF34BF012017
:100AF00000205DF808FB00BF4DF808EDFFF7E0FFB0
:100B000094BF012000205DF808FB00BF4DF808ED00
:100B1000FFF7CEFF94BF012000205DF808FB00BF67
:100B20004DF808EDFFF7C4FF34BF012000205DF849
:100B300008FB00BF4A0011D212F5001211D20DD5E8
:100B40006FF47873B3EB62520ED44FEAC12343F0D3
:100B5000004343EA505323FA02F070474FF000007D
:100B6000704750EA013002D14FF0FF3070474FF02C
:100B70000000704753B94AB9002908BF00281CBFBC
:100B80004FF0FF314FF0FF3000F07AB9ADF1080CB3
:100B90006DE904CE00F006F8DDF804E0DDE902239B
:100BA00004B070472DE9F0478C460D460446089E78
:100BB000002B51D18A4217466DD9B2FA82FEBEF19E
:100BC000000F0BD0CEF1200C01FA0EF520FA0CFC30
:100BD00002FA0EF74CEA050C00FA0EF44FEA174A37
:100BE000250CBCFBFAF81FFA87F90AFB18CC45EA7A
:100BF0000C4508FB09F3AB420AD9ED1908F1FF32A5
:100C000080F02381AB4240F22081A8F102083D44EC
:100C1000ED1AA4B2B5FBFAF00AFB105544EA0544FC
:100C200000FB09F9A14509D9E41900F1FF3380F06F
:100C30000A81A14540F2078102383C44A4EB090433
:100C400040EA08400021002E61D024FA0EF400236F
:100C500034607360BDE8F0878B4207D9002E54D012
:100C6000002186E821000846BDE8F087B3FA83F149
:100C7000002940F08E80AB4202D3824200F2FA801B
:100C8000841A65EB03050120AC46002E3FD086E8B0
:100C90001010BDE8F08712B90127B7FBF2F7B7FAD9
:100CA00087FEBEF1000F34D1EB1B3A0C1FFA87FC14
:100CB0000121B3FBF2F8250C02FB183345EA03458A
:100CC0000CFB08F3AB4207D9ED1908F1FF3002D253
:100CD000AB4200F2D1808046ED1AA3B2B5FBF2F030
:100CE00002FB105543EA05440CFB00FCA44507D960
:100CF000E41900F1FF3302D2A44500F2B88018468F
:100D0000A4EB0C0440EA08409DE731463046BDE8BC
:100D1000F087CEF1200405FA0EF307FA0EF720FA59
:100D200004F83A0C25FA04F448EA0308B4FBF2F19B
:100D30004FEA184502FB11441FFA87FC45EA0445B7
:100D400001FB0CF3AB4200FA0EF409D9ED1901F1E5
:100D5000FF3080F08A80AB4240F2878002393D4408
:100D6000EB1A1FFA88F5B3FBF2F002FB103345EAE9
:100D7000034500FB0CF3AB4207D9ED1900F1FF3836
:100D80006FD2AB426DD902383D44EB1A40EA0141C3
:100D90008FE7C1F1200722FA07F88B4005FA01F42A
:100DA00048EA030320FA07FE4FEA134CFD404EEADF
:100DB000040EB5FBFCF94FEA1E440CFB19551FFA53
:100DC00083F844EA054509FB08F4AC4202FA01F253
:100DD00000FA01FA08D9ED1809F1FF3043D2AC420C
:100DE00041D9A9F102091D442D1B1FFA8EFEB5FB46
:100DF000FCF00CFB10554EEA054400FB08F8A0453A
:100E000007D9E41800F1FF3529D2A04527D90238C7
:100E10001C4440EA0940A4EB0804A0FB02894C45AD
:100E2000C6464D4615D312D056B1BAEB0E0364EB4D
:100E3000050404FA07F7CB401F43CC4037607460C9
:100E40000021BDE8F0871846F8E69046E0E6C24586
:100E5000EAD2B8EB020E69EB03050138E4E7284655
:100E6000D7E7404691E78146BEE7014678E702387A
:100E70003C4445E7084608E7A8F102083D442BE753
:100E8000704700BF80B586B002AFF8607B600B464C
:100E9000FB721346BB72BA7AF97A3B8B01937B687B
:100EA00000930123F86800F005F803461846103750
:100EB000BD4680BD80B588B004AF78600846114655
:100EC0001A460346FB700B46BB7013467B707B785B
:100ED000FB73FB789BB25B0099B2BB7898B27B78CE
:100EE0009BB2BA8B02920193BB6900930123024625
:100EF000786804F013FE97F90F3018461037BD4696
:100F000080BD80B588B002AFF8607B600B46FB7295
:100F10001346BB720223FB75BA7AF97A3B8C0193B4
:100F200007F1100300930223F868FFF7C3FF3B7C2F
:100F30001B021AB27B7C1BB213431BB29AB27B68B2
:100F40001A8097F9173018461837BD4680BD80B50E
:100F500084B002AF7860084611461A460346FB701B
:100F60000B46BB7013467B70BA78F9787B1C0093F4
:100F70000123786800F005F8034618460837BD4697
:100F800080BD80B588B004AF7860084611461A4627
:100F90000346FB700B46BB7013467B700023FB734C
:100FA000FB789BB25B0099B2BB7898B27B789BB21E
:100FB000642202920193BB69009301230246786880
:100FC00004F098FCFB7B002B0CBF01230023DBB259
:100FD00018461037BD4680BD80B586B002AF786038
:100FE000084611461A460346FB700B46BB70134673
:100FF0003B803B881B0A9BB2DBB23B733B88DBB276
:101000007B73BA78F97807F10C03009302237868B0
:10101000FFF7B7FF012318461037BD4680BD80B4E7
:1010200083B000AF78607B6829221A707B68002249
:101030005A807B6800221A7100BF0C37BD465DF8EC
:10104000047B704790B587B000AF78600B46FB70AB
:10105000FB78002B09D08921786800F0FFFA03465D
:101060001A468921786800F0C9FA00228821786838
:1010700000F0C4FA01228021786800F0BFFA012252
:10108000FF21786800F0BAFA00220021786800F0A9
:10109000B5FA9121786800F0E1FA03461A467B68B8
:1010A0001A7201220021786800F0A8FA0022FF21BC
:1010B000786800F0A3FA00228021786800F09EFA98
:1010C0006021786800F0CAFA034643F01203DBB2ED
:1010D0001A466021786800F091FAB5EE000A786847
:1010E00000F0F6FAFF220121786800F087FA07F194
:1010F000130207F114031946786800F061FE0346F5
:1011000083F00103DBB2002B01D0002371E207F171
:101110000C020623B021786801F080FB0122FF2138
:10112000786800F06BFA00224F21786800F066FAC8
:101130002C224E21786800F061FA0022FF217868A5
:1011400000F05CFAB422B621786800F057FAFB7C14
:10115000002B01D00C2300E000237B750023FB75DE
:101160000023BB7556E0BA7D7B7D9A4203D33B7D5D
:10117000FA7D9A4228D1BB7DDB08DBB21C4607F121
:101180001802134413F80C3C58B2BA7D0D4BA3FB64
:101190000213D11A49080B4499080B46DB005B1A6D
:1011A000D31ADBB21A46012393405BB2DB435BB236
:1011B00003405BB2DAB207F11803234403F80C2CA6
:1011C00021E000BF25499224BB7DDB08DBB207F19B
:1011D0001802134413F80C3C1846BA7D0C4BA3FBC1
:1011E0000213D11A49080B4499080B46DB005B1A1D
:1011F000D31ADBB240FA03F303F00103002B02D051
:10120000FB7D0133FB75BB7D0133BB7502E000BF85
:1012100025499224BB7D2F2BA5D907F10C0206236B
:10122000B021786801F032FB0122FF21786800F0DC
:10123000E5F900220021786800F0E0F90022FF21A2
:10124000786800F0DBF900220921786800F0D6F90F
:1012500000221021786800F0D1F90022112178686D
:1012600000F0CCF901222421786800F0C7F9FF22B0
:101270002521786800F0C2F900227521786800F015
:10128000BDF90122FF21786800F0B8F92C224E2127
:10129000786800F0B3F900224821786800F0AEF9D0
:1012A00020223021786800F0A9F90022FF21786817
:1012B00000F0A4F909223021786800F09FF900229B
:1012C0005421786800F09AF904223121786800F0FE
:1012D00095F903223221786800F090F983224021A9
:1012E000786800F08BF925224621786800F086F9AD
:1012F00000226021786800F081F9002227217868B7
:1013000000F07CF906225021786800F077F900227D
:101310005121786800F072F996225221786800F025
:101320006DF908225621786800F068F930225721BB
:10133000786800F063F900226121786800F05EF9B6
:1013400000226221786800F059F90022642178684F
:1013500000F054F900226521786800F04FF9A022CE
:101360006621786800F04AF90122FF21786800F0D0
:1013700045F932222221786800F040F914224721F1
:10138000786800F03BF9FF224921786800F036F9CF
:1013900000224A21786800F031F90022FF217868A4
:1013A00000F02CF90A227A21786800F027F900224F
:1013B0007B21786800F022F921227821786800F0FA
:1013C0001DF90122FF21786800F018F93422232149
:1013D000786800F013F900224221786800F00EF9D5
:1013E000FF224421786800F009F926224521786817
:1013F00000F004F905224621786800F0FFF8402249
:101400004021786800F0FAF806220E21786800F092
:10141000F5F81A222021786800F0F0F840224321E4
:10142000786800F0EBF80022FF21786800F0E6F819
:1014300003223421786800F0E1F8442235217868ED
:1014400000F0DCF80122FF21786800F0D7F80422D0
:101450003121786800F0D2F809224B21786800F039
:10146000CDF805224C21786800F0C8F804224D21FF
:10147000786800F0C3F80022FF21786800F0BEF819
:1014800000224421786800F0B9F8202245217868CC
:1014900000F0B4F808224721786800F0AFF828225D
:1014A0004821786800F0AAF800226721786800F0E7
:1014B000A5F804227021786800F0A0F801227121BB
:1014C000786800F09BF8FE227221786800F096F8A8
:1014D00000227621786800F091F800227721786860
:1014E00000F08CF80122FF21786800F087F80122D3
:1014F0000D21786800F082F80022FF21786800F062
:101500007DF801228021786800F078F8F822012126
:10151000786800F073F80122FF21786800F06EF817
:1015200001228E21786800F069F801220021786894
:1015300000F064F80022FF21786800F05FF80022D4
:101540008021786800F05AF804220A21786800F0B7
:1015500055F88421786800F081F8034623F01003E1
:10156000DBB21A468421786800F048F801220B218A
:10157000786800F043F8786800F079F902467B68F3
:10158000DA60E8220121786800F038F87B68DB68CF
:101590001946786800F0D2F801220121786800F03D
:1015A0002DF84021786800F0DBFD034683F001034D
:1015B000DBB2002B01D000231BE00222012178685E
:1015C00000F01CF80021786800F0CAFD034683F0A3
:1015D0000103DBB2002B01D000230AE0E822012145
:1015E000786800F00BF84FF4FA71786800F0C8FBE7
:1015F000012318461C37BD4690BD00BF80B582B0A0
:1016000000AF78600B46FB701346BB707B6819789F
:10161000BB78FA780448FFF79AFC7B6800221A74BA
:1016200000BF0837BD4680BD3402002080B582B0BF
:1016300000AF78600B46FB7013463B807B681978DF
:101640003B88FA780448FFF7C7FC7B6800221A74CD
:1016500000BF0837BD4680BD3402002080B586B08B
:1016600002AF78600B46FB707B68197807F10F00BA
:10167000FA784FF48073009303460548FFF702FCA5
:101680007B6800221A74FB7B18461037BD4680BD6C
:101690003402002080B586B002AF78600B46FB7044
:1016A0007B68197807F10E00FA784FF48073009385
:1016B00003460548FFF725FC7B6800221A74FB8966
:1016C00018461037BD4680BD3402002000000000DF
:1016D00080B584B000AFF86087ED020AD7ED027ADA
:1016E000F5EEC07AF1EE10FA0AD4B868FEF734FFCE
:1016F00010A3D3E90023FFF713FA0346002B01D010
:10170000002311E0D7ED027A9FED097A67EE877A20
:10171000FCEEE77AC7ED017ABB889BB21A464421FA
:10172000F868FFF783FF012318461037BD4680BDD8
:1017300000000043A4703D0AD7FF7F4080B592B0FF
:1017400000AF786039604FF4A563A7F840304FF4DC
:101750007073FB874FF42573BB8740F24E237B8762
:1017600040F2B2233B874FF42573FB8640F22623D9
:10177000BB8644F620633B633A683B6B9A4201D2D6
:10178000002370E0B7F84020FB8F13447B6407F11F
:1017900024031946786800F0B3FB07F10C0207F147
:1017A00024031946786800F0F6FB97F82430002BE4
:1017B00005D0BA697B8F13447A6C13447B6497F825
:1017C0002630002B07D0BA693B8F13445B007A6C3C
:1017D00013447B6409E097F82530002B05D0BA69E3
:1017E000BB8F13447A6C13447B6497F82730002B2B
:1017F00005D0FA69FB8E13447A6C13447B6497F826
:101800002830002B2ED0BB8E7A6C13447B647A6C0C
:101810003B689A4201D9002325E03A687B6CD31AD1
:10182000FB62FB89DBB21946F86A00F07FFC0346D5
:10183000A7F8423097F82730002B05D07A8AB7F8FE
:1018400042301344A7F84230B7F84230184600F04F
:1018500022FC03461A4671217868FFF7E7FE7B6891
:101860003A68DA60012318464837BD4680BD80B526
:101870008EB000AF786040F276737B864FF4707361
:101880003B864FF42573FB8540F24E23BB8540F227
:10189000B2237B854FF425733B8540F22623FB84DE
:1018A0007A8E3B8E13447B6307F1200319467868D8
:1018B00000F026FB07F1080207F1200319467868BB
:1018C00000F069FB97F82030002B05D07A69BB8DBA
:1018D00013447A6B13447B6397F82230002B07D0B4
:1018E0007A697B8D13445B007A6B13447B6309E058
:1018F00097F82130002B05D07A69FB8D13447A6B61
:1019000013447B6397F82330002B05D0BA693B8DD5
:1019100013447A6B13447B6397F82430002B05D073
:10192000FA69FB8C13447A6B13447B637B687A6B94
:10193000DA607B6B18463837BD4680BD80B58CB009
:1019400000AF78600B46FB701346BB70BB7818463F
:1019500000F070FC034687F82D3007F1200319468C
:10196000786800F0CDFA07F1080207F12003194664
:10197000786800F010FBFB78002B65D1BB780C3B3E
:10198000062B29D801A252F823F000BFA91900089C
:10199000D9190008B5190008D9190008C11900089B
:1019A000D9190008CD190008182257217868FFF7C7
:1019B00025FE13E0302257217868FFF71FFE0DE067
:1019C000402257217868FFF719FE07E0502257217F
:1019D0007868FFF713FE01E0002323E10822562177
:1019E0007868FFF70BFE97F82D301A46502178687B
:1019F000FFF704FEBB69BA781146184600F096FB63
:101A000003467B857B8D184600F045FB03461A464E
:101A100051217868FFF70AFE7B69BA7811461846AB
:101A200000F084FB03463B853B8DB3F5807F04D8F3
:101A30003B8DDBB2013BDBB200E0FF231A464621BF
:101A40007868FFF7DBFDCFE0FB78012B40F0CA8020
:101A5000BB78083B062B00F2A18001A252F823F0CC
:101A60007D1A00089D1B0008C51A00089D1B000870
:101A70000D1B00089D1B0008551B00081022482163
:101A80007868FFF7BBFD082247217868FFF7B6FDAD
:101A9000022232217868FFF7B1FD0C2230217868EC
:101AA000FFF7ACFD0122FF217868FFF7A7FD302288
:101AB00030217868FFF7A2FD0022FF217868FFF748
:101AC0009DFD6DE0282248217868FFF797FD0822E8
:101AD00047217868FFF792FD032232217868FFF7EB
:101AE0008DFD092230217868FFF788FD0122FF2152
:101AF0007868FFF783FD202230217868FFF77EFDAC
:101B00000022FF217868FFF779FD49E0382248215B
:101B10007868FFF773FD082247217868FFF76EFDAC
:101B2000032232217868FFF769FD082230217868A6
:101B3000FFF764FD0122FF217868FFF75FFD202297
:101B400030217868FFF75AFD0022FF217868FFF7FF
:101B500055FD25E0482248217868FFF74FFD08220F
:101B600047217868FFF74AFD032232217868FFF7A2
:101B700045FD072230217868FFF740FD0122FF2153
:101B80007868FFF73BFD202230217868FFF736FDAB
:101B90000022FF217868FFF731FD01E0002341E0DA
:101BA00097F82D301A4670217868FFF727FDFB69FA
:101BB000BA781146184600F0B9FA0346FB8597F843
:101BC0002330002B03D0FA89FB8D1344FB85FB8D5A
:101BD000184600F060FA03461A4671217868FFF74C
:101BE00025FD01E000231DE07B68DB68194678686D
:101BF000FFF7A4FD01217868FFF730FD034687F861
:101C00002730022201217868FFF7F8FC002178686C
:101C100000F0A6FA97F827301A4601217868FFF7F6
:101C2000EDFC012318463037BD4680BD80B582B03B
:101C300000AF78600B46FB70FB78002B09D1502178
:101C40007868FFF70BFD0346184600F0E3FA0346F9
:101C50000DE0FB78012B09D170217868FFF7FEFCBD
:101C60000346184600F0D6FA034600E0FF23184664
:101C70000837BD4680BD80B584B000AF7860786815
:101C800000F0A1FA0BE0786800F0ABFA0346002BF5
:101C900005D07B6801221A714FF6FF731DE01321F6
:101CA0007868FFF7DBFC034603F00703002BEAD05C
:101CB0001E217868FFF7EEFC0346FB8101220B2111
:101CC0007868FFF79BFC786800F069F80346002B02
:101CD00002D041F6FE73FB81FB8918461037BD46E2
:101CE00080BD80B582B000AF786001228021786825
:101CF000FFF784FC0122FF217868FFF77FFC0022B8
:101D000000217868FFF77AFC7B681B7A1A469121DC
:101D10007868FFF773FC012200217868FFF76EFCFA
:101D20000022FF217868FFF769FC00228021786893
:101D3000FFF764FC012200217868FFF75FFC7868F8
:101D400000F041FA0BE0786800F04BFA0346002BF4
:101D500005D07B6801221A714FF6FF730CE0002159
:101D60007868FFF77BFC034603F00103002BEAD100
:101D70007868FFF780FF034618460837BD4680BDE8
:101D800080B483B000AF78600B467B807B687A8834
:101D90005A8000BF0C37BD465DF8047B704780B4A5
:101DA00085B000AF78607B681B79FB737B6800228D
:101DB0001A71FB7B18461437BD465DF8047B7047EB
:101DC00080B586B000AFF860B9607A6001228021EA
:101DD000F868FFF713FC0122FF21F868FFF70EFCFB
:101DE00000220021F868FFF709FC0622FF21F868AD
:101DF000FFF704FC8321F868FFF730FC034643F04B
:101E00000403DBB21A468321F868FFF7F7FB0722C9
:101E1000FF21F868FFF7F2FB01228121F868FFF744
:101E2000EDFB01228021F868FFF7E8FB6B2294218B
:101E3000F868FFF7E3FB00228321F868FFF7DEFB79
:101E4000F86800F0C0F907E0F86800F0CAF9034646
:101E5000002B01D000234FE08321F868FFF7FEFB41
:101E60000346002BF0D001228321F868FFF7C6FB60
:101E70009221F868FFF7F2FB0346FB75FB7D03F048
:101E80007F03DAB2BB681A70FB7DDB09DBB203F0BB
:101E90000103002B14BF01230023DAB27B681A7000
:101EA00000228121F868FFF7A9FB0622FF21F868CC
:101EB000FFF7A4FB8321F868FFF7D0FB034623F06C
:101EC0000403DBB21A468321F868FFF797FB01226F
:101ED000FF21F868FFF792FB01220021F868FFF765
:101EE0008DFB0022FF21F868FFF788FB002280218C
:101EF000F868FFF783FB012318461837BD4680BDFD
:101F000080B584B000AF7860396001217868FFF750
:101F1000A5FB0346FB73FB7B1B09DBB203F001034C
:101F2000002B14BF01230023DAB23B681A70FB7B3D
:101F3000DB08DBB203F00103002B14BF01230023F5
:101F4000DAB23B689A70FB7B9B08DBB203F00103BB
:101F5000002B14BF01230023DAB23B685A70FB7BCD
:101F60009B09DBB203F00103002B14BF0123002304
:101F7000DAB23B68DA70FB7BDB09DBB203F001030A
:101F8000002B14BF01230023DAB23B681A7100BF93
:101F90001037BD4680BD80B584B000AFF860B96031
:101FA0007A600021F868FFF741FE03469AB27B6829
:101FB0001A804621F868FFF751FB03469BB20133B4
:101FC0009AB27B689A807B689A887B681B88DBB2B0
:101FD0001946104600F08CF802467B68DA60512101
:101FE000F868FFF757FB0346184600F040F8034631
:101FF0001A467B68DA807B68DA887B681B88DBB2EC
:102000001946104600F074F802467B681A610121F7
:10201000F868FFF70BFE03469AB27B685A8071217D
:10202000F868FFF737FB0346184600F020F8034630
:102030001A467B681A81BB68DB78002B07D07B6867
:102040001A897B68DB88D31A9AB27B681A817B680D
:102050001A897B685B88DBB21946104600F048F8A5
:1020600002467B685A6100BF1037BD4680BD80B410
:1020700083B000AF0346FB80FB88DBB2FA88120A0C
:1020800092B293409BB201339BB218460C37BD46C7
:102090005DF8047B704780B485B000AF0346FB80D9
:1020A0000023FB6000237B81FB88002B18D0FB887A
:1020B000013BFB6005E0FB685B08FB607B8901334B
:1020C0007B81FB6823F0FF03002BF4D17B891B028B
:1020D0009AB2FB689BB2DBB29BB213439BB200E0A7
:1020E000002318461437BD465DF8047B7047000096
:1020F00080B584B000AF03460A46FB8013467B716F
:102100007B79184600F0A6F8F860FB88FA6802FBB5
:1021100003F2FB685B081344034AA2FB03239B09F9
:1021200018461037BD4680BDD34D621080B584B0CF
:1021300000AF78600B46FB70FB78184600F08AF819
:10214000F8607B684FF47A7202FB03F2FB685B086D
:102150001A44FB68B2FBF3F318461037BD4680BD46
:1021600080B582B000AF78600B46FB70FB7843F01F
:102170000103DBB21A4600217868FFF73FFA78685E
:1021800000F021F807E0786800F02BF80346002BF8
:1021900001D0002313E013217868FFF75FFA0346AC
:1021A00003F00703002BEED001220B217868FFF724
:1021B00025FA002200217868FFF720FA012318464B
:1021C0000837BD4680BD80B582B000AF786001F0B1
:1021D00037FC03469AB27B68DA8000BF0837BD46F9
:1021E00080BD80B582B000AF78607B685B88002BD3
:1021F0000BD001F025FC02467B68DB88D31A7A6895
:102200005288934201D9012300E000231846083781
:10221000BD4680BD80B483B000AF0346FB71FB793F
:102220000133DBB25B00DBB218460C37BD465DF80C
:10223000047B704780B483B000AF0346FB71FB7929
:102240005B08DBB2013BDBB218460C37BD465DF8DC
:10225000047B704780B483B000AF0346FB71FB7909
:10226000074A02FB03F303F5FA73064AA2FB0323B2
:102270009B0918460C37BD465DF8047B704700BFCC
:10228000002F3A00D34D621084B080B586B000AF05
:1022900007F1200E8EE80F003B8D7B600123BB60B1
:1022A0000023FB6000233B613B6A3A1D1146184640
:1022B00002F0FEFE7B8D7B600023BB600123FB6090
:1022C00000233B617B6A3A1D1146184602F0F0FE7E
:1022D0003B6A398D0122184603F07CF8322001F068
:1022E000BBFB7B6A398D0022184603F073F800BFF0
:1022F0001837BD46BDE8804004B0704784B080B553
:1023000084B002AF07F1100E8EE80F0000237B604F
:1023100000233B600DE03B6A009307F110030FCBF5
:1023200000F018F802467B6813447B603B68013379
:102330003B6097F824203B689A42ECDC97F8243005
:102340007A6892FBF3F318460837BD46BDE8804033
:1023500004B0704784B080B582B000AF07F1100EB2
:102360008EE80F0000237B6000BF7B697A8B1146EB
:10237000184603F017F80346012BF6D00023FB7034
:102380001DE03B69398B0122184603F023F87B6876
:102390005B007B607B697A8B1146184603F002F87C
:1023A0000346002B02D07B6801337B603B69398B8D
:1023B0000022184603F00EF8FB780133FB70FB781F
:1023C000172BDED93B69398B0122184603F002F83E
:1023D0003B69398B0022184602F0FCFF7B681846E7
:1023E0000837BD46BDE8804004B0704784B0B0B542
:1023F00086B002AF786007F1240080E80E0097F8FD
:10240000383001937B6B009307F124030FCBFFF768
:1024100075FFF860FB683B637B681D4607F1240489
:102420000FCC0FC523682B6078681037BD46BDE818
:10243000B04004B07047000080B582B000AF786053
:102440007868FDF7CDFE03469AB24FF0FF33796806
:10245000034806F04BFA00BF0837BD4680BD00BFF9
:102460006804002080B584B000AF0346FB80FA8882
:1024700007F108030649184607F016FB07F10803A1
:102480001846FFF7D9FF00BF1037BD4680BD00BF1B
:10249000D8AC000880B500AF4FF0FF3303220349EA
:1024A000034806F023FA00BF80BD00BF00000020F3
:1024B0006804002080B500AF00220549054805F0FA
:1024C000C2F900220449034805F019FA00BF80BD93
:1024D0006C030020800300203C04002080B500AF86
:1024E0001F48FEF79CFD00224FF400711D4802F0CA
:1024F00071FF642001F0B0FA01224FF40071194815
:1025000002F068FF642001F0A7FA01211448FEF7E9
:1025100099FD034683F00103DBB2002B05D012487E
:10252000FFF78AFFFFF7B6FF04E01048FFF784FFCC
:10253000FFF7B0FF4FF4FA710948FFF721FC1222B0
:1025400000210748FFF7FAF90E2201210448FFF79E
:10255000F5F907490248FFF7F1F800BF80BD00BF59
:102560005404002000040048DCAC00080CAD000856
:10257000400D030080B500AF0448FFF7B2FB0346EF
:102580001A46034B1A8000BF80BD00BF54040020D0
:102590002402002080B500AF01224FF480714FF07B
:1025A000904002F017FF642001F056FA00224FF429
:1025B00080714FF0904002F00DFF054B1B68044AFC
:1025C0001268D26842F00402DA6000BF80BD00BF2A
:1025D000F003002080B500AF064800F0D8FD054BA1
:1025E0001A7B054B1A71034B5A7B034B5A7100BF80
:1025F00080BD00BFF004002024020020F0B58BB0A5
:1026000004AF1B4B1B4A5A60194B1A4A1A60184BED
:1026100002225A81164B08221A81154B80221A6118
:10262000134B0022DA60124B1A6900920FCBFFF7AE
:102630002BFE4FF4FA6001F00FFA0D4E3C460C4BA6
:10264000012202926D4603F10C0292E8030085E834
:1026500003000ECB2046FFF7C9FE35463C460FCCA3
:102660000FC523682B6000BF1C37BD46F0BD00BFFF
:10267000400400200008004880B582B002AF0B4B38
:102680001A6900920FCBFFF765FE03461A46074B07
:10269000DB68D21A064BA3FB0213D21A520813446A
:1026A0001B0A044A936000BFBD4680BD4004002061
:1026B000131FD6592402002080B500AF074801F04F
:1026C0004FFD064801F0E2FD03469AB2044B9A81A1
:1026D000024801F0A8FD00BF80BD00BF80020020BD
:1026E00024020020F0B5ADF2044D06AF3B460022B7
:1026F0001A6004334FF479720021184607F0CCF9C0
:10270000154B1B881E46144B5B881946124B1B79D0
:102710001C46114B5B791D460F4B9B680E4A9289F4
:1027200038460492039302950194009133460122A6
:102730000A4907F0B9F93B461846FDF751FD034633
:102740009AB239464FF0FF33054806F0CFF800BF84
:1027500007F57B77BD46F0BD2402002038AD0008A8
:10276000E802002080B500AFFFF704FF2448FFF720
:1027700063FE244B1B881846FFF774FEFFF78AFEA2
:10278000FFF708FF2048FFF757FE1E4B5B881846EF
:10279000FFF768FEFFF77EFEFFF71CFF1B48FFF701
:1027A0004BFE184B1B799BB21846FFF75BFEFFF7F9
:1027B00071FE1748FFF740FE124B5B799BB218463B
:1027C000FFF750FEFFF766FEFFF756FF1148FFF7D1
:1027D00033FE0C4B9B689BB21846FFF743FEFFF796
:1027E00059FEFFF769FF0C48FFF726FE054B9B8952
:1027F0001846FFF737FEFFF74DFE00BF80BD00BF54
:10280000B4AD000824020020CCAD0008E0AD000803
:10281000F4AD000808AE000820AE000880B586B010
:1028200002AFF8607A601A460B46FB721346BB7221
:1028300007F10B024FF47A730093012352211148E0
:1028400002F06EFE0346002B04D04FF4A9710E482F
:1028500000F078FBBB7A9AB24FF47A730093134678
:102860007A685321074802F04FFF0346002B04D03B
:1028700040F25911044800F065FB00BF1037BD4617
:1028800080BD00BF3402002038AE000880B588B09B
:1028900004AFF8607A601A460B46FB721346BB72AF
:1028A000FB7A99B2BB7A9BB24FF47A72029201938F
:1028B0007B68009301230A465221074803F01AF867
:1028C0000346002B04D04FF4B171044800F03AFBEA
:1028D00000BF1037BD4680BD3402002038AE00086E
:1028E00080B500AF01F03CF800F06AF800F0B2FAF1
:1028F00000F0F4F800F056F900F094F900F0BAF99D
:1029000000F048FA00F076FA00F00EFAFFF7E6FD64
:102910000421214805F01CFA0123204A20492148BE
:1029200000F0E4FBFFF76AFEFFF71CFF02221E49DE
:102930001E4806F06FF84FF0FF3301221C491B4878
:1029400005F0D4FF1B4B9B78002B0FD1194B5B7804
:10295000194A1278B3FBF2F102FB01F29B1ADBB2C7
:10296000002B03D1FFF7FEFEFFF7BCFE134B1B78D5
:10297000012B06D1FFF7F6FEFFF7B4FE0F4B002246
:102980001A70FFF797FDFFF7EDFEFFF7ABFE4FF470
:102990007A7001F061F8D5E7F003002000080048E4
:1029A000A4030020F00400200C020020E802002014
:1029B0004CAE00086C03002003000020EC04002053
:1029C00080B5B0B000AF07F17C0344220021184667
:1029D00007F062F807F1680300221A605A609A60F3
:1029E000DA601A613B4668220021184607F054F865
:1029F0000A23FB674FF48073C7F888304023C7F879
:102A00008C300123C7F890300223C7F8A43002238A
:102A1000C7F8A8300123C7F8AC300A23C7F8B03094
:102A20000723C7F8B4300223C7F8B8300223C7F829
:102A3000BC3007F17C03184603F00CFD0346002B65
:102A400001D000F04FFB0F23BB660323FB6600237E
:102A50003B6700237B670023BB6707F16803042102
:102A6000184604F017F90346002B01D000F03AFB9A
:102A7000194B3B6000233B6200237B6200237B6396
:102A80004FF08053FB654FF400737B6602237B603D
:102A90000123BB600823FB6007233B6102237B61AA
:102AA0000223BB614FF08073FB613B46184604F084
:102AB000F5FA0346002B01D000F014FB4FF4007030
:102AC00003F072FC0346002B01D000F00BFB00BFAB
:102AD000C037BD4680BD00BF4340020080B586B010
:102AE00000AF3B4600221A605A609A60DA601A61B1
:102AF0005A61294B294A1A60274B00225A60264BFB
:102B000000229A60244B0022DA60234B00221A61D3
:102B1000214B04225A61204B00221A761E4B0022C0
:102B20005A761D4B0122DA611B4B002283F82020CC
:102B3000194B00229A62184B0022DA62164B0022CF
:102B400083F83020144B00225A63134B002283F881
:102B50003820114801F0B8F90346002B01D000F0ED
:102B6000C1FA0F4B3B6006237B600223BB607F23CF
:102B7000FB6004233B6100237B613B46194606480A
:102B800001F092FB0346002B01D000F0ABFA00BF2E
:102B90001837BD4680BD00BF8002002000000450F1
:102BA0000800900C80B500AF1B4B1C4A1A601A4BF2
:102BB0001B4A5A60184B00229A60174B0122DA60B8
:102BC000154B00221A61144B00225A61124B00224D
:102BD0009A61114B0022DA610F4B00221A620E48F3
:102BE00002F010FC0346002B01D000F07BFA00211C
:102BF000094803F033FB0346002B01D000F072FAC2
:102C00000021054803F075FB0346002B01D000F0BE
:102C100069FA00BF80BD00BF3402002000540040AC
:102C20009129700080B500AF104B114A1A600F4B0C
:102C300000225A600D4B7F229A600C4BFF22DA6013
:102C40000A4B00221A61094B00225A61074B0022ED
:102C50009A61064B0022DA61044804F079FD0346CC
:102C6000002B01D000F03EFA00BF80BD80030020A1
:102C70000028004080B588B000AF07F1140300229F
:102C80001A605A609A603B1D00221A605A609A606E
:102C9000DA60234B234A1A60214B4F225A60204BA3
:102CA00000229A601E4B4FF6FF72DA601C4B002226
:102CB0001A611B4B00225A61194B00229A61184875
:102CC00004F0EFFF0346002B01D000F00BFA0023C5
:102CD0007B610023BB610023FB6107F114031946EC
:102CE0000F4805F029FD0346002B01D000F0FAF94A
:102CF00000237B600123BB600023FB6000233B615A
:102D00003B1D04221946064805F06FFA0346002BC6
:102D100001D000F0E7F900BF2037BD4680BD00BFFD
:102D2000F0030020002C014080B584B000AF3B1DB3
:102D300000221A605A609A60144B154A1A60134BAD
:102D40004F225A60114B00229A60104B4FF6FF72CF
:102D5000DA600E4B00229A610C4804F0CFFE034665
:102D6000002B01D000F0BEF900237B600023FB6044
:102D70003B1D1946054805F0DFFC0346002B01D03A
:102D800000F0B0F900BF1037BD4680BDA40300209D
:102D90000010004080B500AF144B154A1A60134B69
:102DA0004FF4E1325A60114B00229A600F4B00221F
:102DB000DA600E4B00221A610C4B0C225A610B4B4D
:102DC00000229A61094B0022DA61084B00221A6244
:102DD000064B00225A62054805F03AFD0346002BD7
:102DE00001D000F07FF900BF80BD00BFE8020020E5
:102DF0000038014080B500AF144B154A1A60134BE0
:102E00004FF4E1325A60114B00229A600F4B0022BE
:102E1000DA600E4B00221A610C4B0C225A610B4BEC
:102E200000229A61094B0022DA61084B00221A62E3
:102E3000064B00225A62054805F00AFD0346002BA6
:102E400001D000F04FF900BF80BD00BF6804002032
:102E50000044004080B588B000AF07F10C030022A9
:102E60001A605A609A60DA601A61334A324BDB6C3E
:102E700043F00403D364304BDB6C03F00403BB600A
:102E8000BB682D4A2C4BDB6C43F00103D3642A4B07
:102E9000DB6C03F001037B607B68274A264BDB6C0D
:102EA00043F00203D364244BDB6C03F002033B606A
:102EB0003B6800220B21214802F08CFA00224FF4DB
:102EC00080714FF0904002F085FA00224FF40071BB
:102ED0001B4802F07FFA0B23FB6001233B610023B8
:102EE0007B610023BB6107F10C031946134802F014
:102EF000DFF84FF48073FB6001233B6100237B61AB
:102F00000023BB6107F10C0319464FF0904002F01B
:102F1000CFF84FF40073FB6001233B6100237B611A
:102F20000023BB6107F10C031946054802F0C0F805
:102F300000BF2037BD4680BD001002400008004899
:102F40000004004880B483B000AF7860396000BFEF
:102F50000C37BD465DF8047B7047000000000000A0
:102F600090B583B000AF78607B681B7F022B40F088
:102F70008380454B1B78002B1AD10421786805F01B
:102F8000C9F90246414B1A603F4B01221A707B6817
:102F90001B687A681268126A22F0A0021A627B68C3
:102FA0001B687A681268126A42F020021A6263E0B3
:102FB000354B1B78002B5FD00421786805F0AAF907
:102FC0000246334B1A607B681B6800225A62304B02
:102FD0001A682E4B1B689A4207D92D4B1A682B4B47
:102FE0001B68D31A2B4A13600FE0284B1A68284B32
:102FF0001B689A4209D9264B1A68244B1B68D31ABE
:1030000003F57F43FF33234A1360224B1B681846A6
:10301000FDF780FA1AA3D3E90023FDF7F1FA03467E
:103020000C46184621464FF000024FF08043FDF752
:1030300011FC03460C4618462146FDF77BFD03466E
:103040009AB2154B5A80104B00221A707B681B688D
:103050007A681268126A22F0A0021A627B681B6802
:103060007A681268126A1A627B681B687A6812684A
:10307000D26822F00402DA6000BF0C37BD4690BD72
:10308000C3F5285C8FC2D53F08020020FC01002058
:1030900000020020040200202402002080B582B03B
:1030A00000AF786002220A490A4805F0B3FC084BD9
:1030B0001B78302B03D1084B01221A7004E0074A19
:1030C0000749034806F014FD00BF0837BD4680BD20
:1030D0000C020020E8020020EC0400200300002085
:1030E000D8AC000880B400AF72B6FEE780B485B0FB
:1030F00000AFF860B9607A607B80FB68BA689A605C
:10310000FB687A681A60FB687A889A8000BF143777
:10311000BD465DF8047B704780B588B000AF78602D
:103120000B46FB7007F10C0300221A605A609A608C
:10313000DA601A61FB78012B11D17B689B88FB60F8
:1031400001233B6100237B610323BB617B681B6818
:1031500007F10C021146184601F0AAFF13E0FB78B4
:10316000002B10D17B689B88FB6000233B61002310
:103170007B610323BB617B681B6807F10C0211466E
:10318000184601F095FF00BF2037BD4680BD80B5D1
:1031900094B000AF78600023FB860023BB86002339
:1031A000A7F84E30002387F84D30002387F84C30C5
:1031B000002387F84B30002387F8333001217868EB
:1031C000FFF7AAFF7B6818687B689B880022194676
:1031D00002F000F9122000F03FFC72B67B689B6899
:1031E000184604F0E3FC00217868FFF795FF7B6840
:1031F0009B681B6800225A620AE07B689B681B6818
:103200005B6A9BB2B3F5FA7F02D962B600232AE16A
:103210007B681A687B689B881946104602F0C2F8E2
:103220000346012BE9D07B689B681B6800225A6229
:103230000AE07B689B681B685B6A9BB2B3F5FA7F08
:1032400002D962B600230EE17B681A687B689B880E
:103250001946104602F0A6F80346002BE9D07B6819
:103260009B681B685B6AFB867B689B681B68002207
:103270005A620AE07B689B681B685B6A9BB2B3F585
:10328000FA7F02D962B60023EDE07B681A687B689A
:103290009B881946104602F085F80346012BE9D0B9
:1032A0007B689B681B685B6ABB86FB8E4A2B0BD8CE
:1032B000FB8E552B08D9BB8E4A2B05D8BB8E552BC0
:1032C00002D962B60023CEE000237B645BE07B681A
:1032D0009B681B6800225A620AE07B689B681B6837
:1032E0005B6A9BB2B3F5FA7F02D962B60023BAE0FB
:1032F0007B681A687B689B881946104602F052F872
:103300000346002BE9D07B689B681B6800225A6249
:103310000AE07B689B681B685B6A9BB2B3F5FA7F27
:1033200002D962B600239EE07B681A687B689B889E
:103330001946104602F036F80346012BE9D07B68A7
:103340009B681B685B6AFB86FB8E142B06D9FB8E81
:103350001D2B03D80023A7F84E3008E0FB8E3C2B32
:1033600005D9FB8E4F2B02D80123A7F84E30B7F8B2
:103370004E30D9B207F108027B6C13440A461A702A
:103380007B6C01337B647B6C272BA0DD7B689B68A7
:10339000184604F05FFC62B600233B6411E007F1BD
:1033A00008023B6C13441A7897F84D30134487F8A1
:1033B0004D3097F84D305B0087F84D303B6C013352
:1033C0003B643B6C072BEADD1023FB6311E007F144
:1033D0000802FB6B13441A7897F84C30134487F8B3
:1033E0004C3097F84C305B0087F84C30FB6B013366
:1033F000FB63FB6B172BEADD2023BB6311E007F1B6
:103400000802BB6B13441A7897F84B30134487F8C3
:103410004B3097F84B305B0087F84B30BB6B013378
:10342000BB63BB6B272BEADD97F84B305B0887F853
:103430004B3097F84D305B0887F84D3097F84C309B
:103440005B0887F84C3097F84D2097F84C301344C0
:1034500087F833307B6897F84C201A737B6897F8AD
:103460004D205A73012318465037BD4680BD0000D9
:1034700080B483B000AF0F4A0E4B1B6E43F00103C4
:1034800013660C4B1B6E03F001037B607B68094ADB
:10349000084B9B6D43F080539365064B9B6D03F087
:1034A00080533B603B6800BF0C37BD465DF8047B32
:1034B000704700BF0010024080B58AB000AF78604E
:1034C00007F1140300221A605A609A60DA601A61E8
:1034D0007B681B68154A934223D1154A144BDB6C59
:1034E00043F40053D364124BDB6C03F400533B6191
:1034F0003B690F4A0E4BDB6C43F00403D3640C4B67
:10350000DB6C03F00403FB60FB6804237B610B238B
:10351000BB610023FB6107F114031946054801F064
:10352000C7FD00BF2837BD4680BD00BF0000045066
:10353000001002400008004880B58AB000AF7860F3
:1035400007F1140300221A605A609A60DA601A6167
:103550007B681B68174A934228D1174A164BDB6CCD
:1035600043F00203D364144BDB6C03F002033B61B2
:103570003B694FF4C0737B611223BB610123FB6184
:1035800003233B6204237B6207F1140319460B48B3
:1035900001F08EFD084A084B9B6D43F400139365C0
:1035A000054B9B6D03F40013FB60FB6800BF2837DD
:1035B000BD4680BD00540040001002400004004899
:1035C00080B483B000AF78607B681B68084A934280
:1035D00007D1084A074BD3F8903043F40043C2F8B0
:1035E000903000BF0C37BD465DF8047B704700BFCC
:1035F000002800400010024080B58AB000AF78601B
:1036000007F1140300221A605A609A60DA601A61A6
:103610007B681B681C4A934231D11C4A1B4B1B6EB2
:1036200043F400631366194B1B6E03F400633B61A4
:103630003B69164A154BDB6C43F00103D364134B13
:10364000DB6C03F00103FB60FB684FF400737B61EC
:103650000223BB610023FB6100233B6201237B62E9
:1036600007F1140319464FF0904001F021FD0022AC
:1036700000211B2001F067FC1B2001F080FC00BF33
:103680002837BD4680BD00BF002C0140001002401D
:1036900080B485B000AF78607B681B680A4A9342AB
:1036A0000BD10A4A094B9B6D43F010039365074BFE
:1036B0009B6D03F01003FB60FB6800BF1437BD4631
:1036C0005DF8047B704700BF00100040001002400E
:1036D00080B58CB000AF786007F11C0300221A603F
:1036E0005A609A60DA601A617B681B684A4A9342A2
:1036F0004ED14A4A494B1B6E43F480431366474BF5
:103700001B6E03F48043BB61BB69444A434BDB6CD3
:1037100043F00103D364414BDB6C03F001037B6195
:103720007B693E4A3D4BDB6C43F00203D3643B4B69
:10373000DB6C03F002033B613B694FF48063FB6188
:1037400002233B6200237B620323BB620723FB62ED
:1037500007F11C0319464FF0904001F0A9FC4023EB
:10376000FB6102233B6200237B620323BB620723CE
:10377000FB6207F11C031946294801F099FC00225D
:103780000021252001F0DFFB252001F0F8FB3FE0C0
:103790007B681B68234A93423AD1204A1F4B9B6D9A
:1037A00043F4003393651D4B9B6D03F40033FB60C2
:1037B000FB681A4A194BDB6C43F00103D364174BC7
:1037C000DB6C03F00103BB60BB680423FB610223D5
:1037D0003B6200237B620323BB620723FB6207F18A
:1037E0001C0319464FF0904001F062FC4FF4004377
:1037F000FB6102233B6200237B620323BB62032342
:10380000FB6207F11C0319464FF0904001F050FC99
:1038100000BF3037BD4680BD003801400010024077
:10382000000400480044004080B400AFFEE780B4CC
:1038300000AFFEE780B400AFFEE780B400AFFEE764
:1038400080B400AFFEE780B400AF00BFBD465DF8B6
:10385000047B704780B400AF00BFBD465DF8047BB9
:10386000704780B400AF00BFBD465DF8047B704771
:1038700080B500AF00F0D0F800BF80BD80B500AFCC
:10388000024804F093FB00BF80BD00BFF00300209E
:1038900080B500AF024805F001F900BF80BD00BF50
:1038A000E802002080B584B000AF7860114B1B683F
:1038B000002B02D10F4B104A1A600E4B1B68FB60A5
:1038C0000C4B1A687B6813446A46934207D906F08A
:1038D000B9F802460C2313604FF0FF3306E0054BA6
:1038E0001A687B681344034A1360FB681846103754
:1038F000BD4680BD180200200805002080B400AF3E
:10390000154A154BD3F8883043F47003C2F8883059
:10391000124A124B1B6843F0010313600F4B002245
:103920009A600E4A0D4B1B6823F0A85323F4102312
:1039300013600A4B4FF48052DA60084A074B1B6849
:1039400023F480231360054B00229A6100BFBD461B
:103950005DF8047B704700BF00ED00E000100240FE
:1039600080B582B000AF0023FB710C4A0B4B1B6883
:1039700043F480731360032001F0DAFA002000F0B2
:103980000FF80346002B02D00123FB7101E0FFF783
:103990006FFDFB7918460837BD4680BD0020024008
:1039A00080B584B000AF78600023FB73174B1B78A1
:1039B000002B23D0164B1A68144B1B7819464FF472
:1039C0007A73B3FBF1F3B2FBF3F3184601F0E5FAB7
:1039D0000346002B0FD17B680F2B09D80022796892
:1039E0004FF0FF3001F0AFFA0A4A7B68136007E03E
:1039F0000123FB7304E00123FB7301E00123FB734C
:103A0000FB7B18461037BD4680BD00BF0C00002070
:103A1000040000200800002080B400AF064B1B7893
:103A20001A46064B1B681344044A136000BFBD4688
:103A30005DF8047B704700BF0C00002000050020EB
:103A400080B400AF034B1B681846BD465DF8047B8D
:103A5000704700BF0005002080B584B000AF7860DB
:103A6000FFF7EEFFB8607B68FB60FB68B3F1FF3FD8
:103A700005D0094B1B781A46FB681344FB6000BF56
:103A8000FFF7DEFF0246BB68D21AFB689A42F7D303
:103A900000BF1037BD4680BD0C00002080B483B04D
:103AA00000AF786039607B689B6823F47C123B68C8
:103AB0001A437B689A6000BF0C37BD465DF8047BF3
:103AC000704780B483B000AF786039607B689B68D2
:103AD00023F0E0723B681A437B689A6000BF0C37A2
:103AE000BD465DF8047B704780B483B000AF78605A
:103AF0007B689B6803F0E07318460C37BD465DF8A1
:103B0000047B704780B487B000AFF860B9607A601A
:103B10003B60FB6860331A46BB689B0013447B61C3
:103B20007B691A68084B13407A6802F0F8413A68DA
:103B30000A43134343F000427B691A6000BF1C37FD
:103B4000BD465DF8047B704700F0FF0380B485B08C
:103B500000AF786039607B6860331A463B689B0031
:103B60001344FB60FB681B6803F0F84318461437E6
:103B7000BD465DF8047B704780B487B000AFF86045
:103B8000B9607A60FB6860331A46BB689B001344D7
:103B90007B617B691B6823F000427B681A437B6969
:103BA0001A6000BF1C37BD465DF8047B704780B4C7
:103BB00083B000AF786039607B685B6923F00042B6
:103BC0003B681A437B685A6100BF0C37BD465DF8FD
:103BD000047B704780B487B000AFF860B9607A604A
:103BE000FB6830331A46BB681B0A9B0003F00C03CA
:103BF00013447B617B691A68BB6803F01F031F21B4
:103C000001FA03F3DB431A407B689B0E03F01F01AC
:103C1000BB6803F01F0301FA03F31A437B691A60C0
:103C200000BF1C37BD465DF8047B704780B487B089
:103C300000AFF860B9607A60FB6814331A46BB685D
:103C40005B0E9B0003F0040313447B617B691A68DD
:103C5000BB681B0D03F01F03072101FA03F3DB43CD
:103C60001A40BB681B0D03F01F03796801FA03F3C8
:103C70001A437B691A6000BF1C37BD465DF8047BA0
:103C80007047000080B485B000AFF860B9607A601A
:103C9000FB68D3F8B020BB68C3F31203DB431A40C0
:103CA0007B6803F018030849D940BB680B40C3F395
:103CB00012031A43FB68C3F8B02000BF1437BD4697
:103CC0005DF8047B704700BFFFFF070080B483B03E
:103CD00000AF78607B689B6823F0204323F03F03AC
:103CE0007A68936000BF0C37BD465DF8047B70476F
:103CF00080B483B000AF78607B689B6803F00053AA
:103D0000B3F1005F01D1012300E0002318460C3716
:103D1000BD465DF8047B704780B483B000AF786027
:103D20007B689B6823F0104323F03F0343F08052ED
:103D30007B689A6000BF0C37BD465DF8047B704716
:103D400080B483B000AF78607B689B6803F08053D9
:103D5000B3F1805F01D1012300E0002318460C3746
:103D6000BD465DF8047B704780B483B000AF7860D7
:103D70007B689B6823F0004323F03F0343F001027C
:103D80007B689A6000BF0C37BD465DF8047B7047C6
:103D900080B483B000AF78607B689B6823F00043F9
:103DA00023F03F0343F002027B689A6000BF0C37A8
:103DB000BD465DF8047B704780B483B000AF786087
:103DC0007B689B6803F00103012B01D1012300E014
:103DD000002318460C37BD465DF8047B704780B45D
:103DE00083B000AF78607B689B6803F00203022B0E
:103DF00001D1012300E0002318460C37BD465DF8D1
:103E0000047B704780B483B000AF78607B689B68A8
:103E100023F0004323F03F0343F004027B689A60E1
:103E200000BF0C37BD465DF8047B704780B483B09B
:103E300000AF78607B689B6823F0004323F03F036A
:103E400043F010027B689A6000BF0C37BD465DF8F6
:103E5000047B704780B483B000AF78607B689B6858
:103E600003F00403042B01D1012300E000231846D2
:103E70000C37BD465DF8047B704780B483B000AF5B
:103E800078607B689B6823F0004323F03F0343F096
:103E900020027B689A6000BF0C37BD465DF8047B4A
:103EA000704780B483B000AF78607B689B6803F094
:103EB0000803082B01D1012300E0002318460C372A
:103EC000BD465DF8047B704780B588B000AF786070
:103ED0000023FB770023BB607B68002B01D101230B
:103EE0002FE17B681B69002B7B689B6D002B09D140
:103EF0007868FFF7E1FA7B680022DA657B680022C8
:103F000083F854207B681B681846FFF7F1FE0346D0
:103F1000002B04D07B681B681846FFF7D7FE7B6830
:103F20001B681846FFF70CFF0346002B15D17B6872
:103F30001B681846FFF7F0FE844B1B689B09844AF8
:103F4000A2FB03239B0901335B00BB6002E0BB685B
:103F5000013BBB60BB68002BF9D17B681B6818462E
:103F6000FFF7EEFE0346002B0DD17B689B6D43F0FF
:103F700010027B689A657B68DB6D43F001027B6809
:103F8000DA650123FB777B681B681846FFF762FF41
:103F900078617B689B6D03F01003002B40F0C880B4
:103FA0007B69002B40F0C4807B689B6D23F4817398
:103FB00043F002027B689A657B681B681846FFF72E
:103FC000FBFE0346002B0BD16248FFF7F5FE0346CC
:103FD000002B05D17B685B6819465F48FFF75EFDE3
:103FE0007B685B7E5A037B685B6B1A437B68DB688C
:103FF0001A437B689B681A437B6893F820301B0444
:104000001343BB617B6893F82030012B06D17B689A
:104010005B6A013B5B04BA691343BB617B689B6AC3
:10402000002B09D07B689B6A03F470727B68DB6AA3
:104030001343BA691343BB617B681A687B681B68CA
:10404000D968464B0B40B9690B43D3607B681B684A
:104050001846FFF7FFFE38617B681B681846FFF7BC
:1040600020FFF8603B69002B40D1FB68002B3DD15D
:104070007B68DA6C7B681B7E9B031A437B6893F832
:1040800030305B001343BB617B681A687B681B6838
:10409000DB6823F4804323F00603B9690B43D36044
:1040A0007B6893F83830012B18D17B681A687B68DD
:1040B0001B681B6923F4FF6323F004037968C86B52
:1040C0007968096C08437968496C08437968896C98
:1040D00001430B4343F00103136107E07B681B6856
:1040E0007A681268126922F001021A617B681B6902
:1040F000012B0CD17B681B687A681268126B22F066
:104100000F017A68D269013A0A431A6307E07B68B3
:104110001B687A681268126B22F00F021A637B68C0
:104120009B6D23F0030343F001027B689A6507E06F
:104130007B689B6D43F010027B689A650123FB77D7
:10414000FB7F18462037BD4680BD00BF040000201D
:10415000632D3E05000004500003045007C0F0FF2B
:1041600080B584B000AF78607B681B681846FFF7A5
:1041700071FE0346002B4FD17B6893F85430012B1E
:1041800001D102234BE07B68012283F85420786838
:1041900000F03EFD0346FB73FB7B002B37D17B68B1
:1041A0009B6D23F4706323F0010343F480727B68FA
:1041B0009A657B689B6D03F48053B3F5805F06D1ED
:1041C0007B68DB6D23F006027B68DA6502E07B68C2
:1041D0000022DA657B681B681C221A607B6800225B
:1041E00083F854207B681B68DB6803F00073002BA6
:1041F00007D07B689B6D23F4405343F480527B6867
:104200009A657B681B681846FFF7FCFD06E07B6833
:10421000002283F8542001E00223FB73FB7B184645
:104220001037BD4680BD80B584B000AF78607B6834
:1042300093F85430012B01D1022323E07B68012243
:1042400083F854200321786800F028FC0346FB73B0
:10425000FB7B002B11D1786800F03CFD0346FB731B
:10426000FB7B002B09D17B689B6D23F4885323F0E3
:10427000010343F001027B689A657B68002283F8A2
:104280005420FB7B18461037BD4680BD80B483B0F8
:1042900000AF78607B681B681B6C18460C37BD4606
:1042A0005DF8047B7047000080B5B6B000AF786061
:1042B0003960002387F8D7300023FB607B6893F8D0
:1042C0005430012B01D10223D3E37B68012283F810
:1042D00054207B681B681846FFF7BCFD0346002B83
:1042E00040F0B8833B685B68052B24D83B685B686B
:1042F000023B032B1BD801A252F823F00D43000808
:10430000154300081D430008254300083B680C22A4
:104310005A6010E03B6812225A600CE03B68182299
:104320005A6008E03B684FF480725A6003E03B68D3
:1043300006225A6000BF7B6818683B6859683B6872
:104340001B681A46FFF746FC7B681B681846FFF798
:1043500081FDC7F8D0007B681B681846FFF7A1FDF8
:10436000C7F8CC00D7F8D030002B40F0C181D7F887
:10437000CC30002B40F0BC813B689B68B3F1004F10
:104380000FD17B6818683B681B6800221946FFF74D
:104390004DFC7B681B684FF000411846FFF707FC97
:1043A0000EE07B6818683B6819683B689B681A4692
:1043B000FFF73CFC7B681B6800211846FFF7F7FB02
:1043C0003B685A697B681B68DB68DB0803F0030302
:1043D0005B0002FA03F3C7F8C8303B681B69042B83
:1043E0000AD07B6818683B6819693B681A68D7F877
:1043F000C830FFF787FB7BE17B681B68002118460C
:10440000FFF7A4FB0346C3F31203002B0AD17B681A
:104410001B6800211846FFF799FB03469B0E03F02B
:104420001F021EE07B681B6800211846FFF78EFB09
:104430000346C7F8BC30D7F8BC3093FAA3F3C7F8EB
:10444000B830D7F8B830C7F8C030D7F8C030002B34
:1044500001D1202304E0D7F8C030B3FA83F3DBB2F4
:104460001A463B681B68C3F31203002B05D13B6857
:104470001B689B0E03F01F0318E03B681B68C7F81E
:10448000B030D7F8B03093FAA3F3C7F8AC30D7F810
:10449000AC30C7F8B430D7F8B430002B01D12023AA
:1044A00004E0D7F8B430B3FA83F3DBB29A4206D112
:1044B0007B681B68002200211846FFF75DFB7B68C4
:1044C0001B6801211846FFF741FB0346C3F31203A3
:1044D000002B0AD17B681B6801211846FFF736FBC9
:1044E00003469B0E03F01F021EE07B681B68012140
:1044F0001846FFF72BFB0346C7F8A430D7F8A430C3
:1045000093FAA3F3C7F8A030D7F8A030C7F8A830C3
:10451000D7F8A830002B01D1202304E0D7F8A83029
:10452000B3FA83F3DBB21A463B681B68C3F312038A
:10453000002B05D13B681B689B0E03F01F0318E09E
:104540003B681B68C7F89830D7F8983093FAA3F304
:10455000C7F89430D7F89430C7F89C30D7F89C301F
:10456000002B01D1202304E0D7F89C30B3FA83F369
:10457000DBB29A4206D17B681B68002201211846F3
:10458000FFF7FAFA7B681B6802211846FFF7DEFA8C
:104590000346C3F31203002B0AD17B681B68022178
:1045A0001846FFF7D3FA03469B0E03F01F021EE0E6
:1045B0007B681B6802211846FFF7C8FA0346C7F854
:1045C0008C30D7F88C3093FAA3F3C7F88830D7F83B
:1045D0008830C7F89030D7F89030002B01D12023D5
:1045E00004E0D7F89030B3FA83F3DBB21A463B68A5
:1045F0001B68C3F31203002B05D13B681B689B0E9D
:1046000003F01F0316E03B681B68C7F88030D7F83B
:10461000803093FAA3F3FB67FB6FC7F88430D7F8B9
:104620008430002B01D1202304E0D7F88430B3FA82
:1046300083F3DBB29A4206D17B681B680022022119
:104640001846FFF799FA7B681B6803211846FFF7A5
:104650007DFA0346C3F31203002B0AD17B681B6863
:1046600003211846FFF772FA03469B0E03F01F0260
:1046700017E07B681B6803211846FFF767FA0346BB
:104680007B677B6F93FAA3F33B673B6FBB67BB6FA3
:10469000002B01D1202303E0BB6FB3FA83F3DBB21D
:1046A0001A463B681B68C3F31203002B05D13B6815
:1046B0001B689B0E03F01F0311E03B681B68BB6681
:1046C000BB6E93FAA3F37B667B6EFB66FB6E002BDF
:1046D00001D1202303E0FB6EB3FA83F3DBB29A42ED
:1046E00006D17B681B68002203211846FFF744FAB5
:1046F0007B681B681846FFF75FFB0346002B40F002
:104700003F817B6818683B6819683B68DB681A461C
:10471000FFF7B8FA3B68DB688E4A934240F030817D
:104720007B6818683B681B68C3F31203002B0BD12E
:104730003B681B689B0E013303F01F03092B94BFDA
:1047400001230023DBB219E03B681B68FB65FB6DAE
:1047500093FAA3F3BB65BB6D3B663B6E002B01D1A7
:10476000202303E03B6EB3FA83F3DBB2013303F0A3
:104770001F03092B94BF01230023DBB2002B79D048
:104780003B681B68C3F31203002B07D13B681B680F
:104790009B0E01339B0603F0F84215E03B681B6853
:1047A0003B653B6D93FAA3F3FB64FB6C7B657B6D10
:1047B000002B01D1202303E07B6DB3FA83F3DBB23E
:1047C00001339B0603F0F8423B681B68C3F31203F6
:1047D000002B09D13B681B689B0E013303F01F03BC
:1047E000012101FA03F317E03B681B687B647B6CD3
:1047F00093FAA3F33B643B6CBB64BB6C002B01D10D
:10480000202303E0BB6CB3FA83F3DBB2013303F084
:104810001F03012101FA03F342EA03013B681B680D
:10482000C3F31203002B0AD13B681B689B0E0133B4
:1048300003F01F0213465B0013441B0518E03B689E
:104840001B68BB63BB6B93FAA3F37B637B6BFB635C
:10485000FB6B002B01D1202303E0FB6BB3FA83F346
:10486000DBB2013303F01F0213465B0013441B0548
:104870000B4380E03B681B68C3F31203002B07D196
:104880003B681B689B0E01339B0603F0F84215E062
:104890003B681B68FB62FB6A93FAA3F3BB62BB6ACB
:1048A0003B633B6B002B01D1202303E03B6BB3FA4E
:1048B00083F3DBB201339B0603F0F8423B681B68CD
:1048C000C3F31203002B09D13B681B689B0E013315
:1048D00003F01F03012101FA03F317E03B681B6893
:1048E0003B623B6A93FAA3F3FB61FB697B627B6AE1
:1048F000002B01D1202303E07B6AB3FA83F3DBB200
:10490000013303F01F03012101FA03F342EA03011B
:104910003B681B68C3F31203002B0DD13B681B6877
:104920009B0E013303F01F0213465B0013441E3B32
:104930001B0543F000731DE03B681B687B617B69CE
:1049400093FAA3F33B613B69BB61BB69002B03D1C5
:10495000202305E000007F40BB69B3FA83F3DBB29C
:10496000013303F01F0213465B0013441E3B1B057B
:1049700043F000730B433A6892681946FFF756F903
:104980003B681A683D4B1340002B6CD03C48FFF746
:10499000ABF8C7F8C4003B681B683A4A934227D17A
:1049A000D7F8C43003F40003002B21D17B681B68C7
:1049B000354A934257D1D7F8C43043F4000319461F
:1049C0002F48FFF77EF8314B1B689B09304AA2FB4A
:1049D00003239B095A1C13465B0013449B00FB6096
:1049E00002E0FB68013BFB60FB68002BF9D13AE079
:1049F0003B681B68274A934213D1D7F8C43003F0B1
:104A00008073002B0DD17B681B681F4A93422AD10B
:104A1000D7F8C43043F0807319461948FFF751F8AE
:104A200021E03B681B681C4A93421CD1D7F8C43074
:104A300003F48003002B16D17B681B68124A934253
:104A400011D1D7F8C43043F4800319460C48FFF75E
:104A500038F808E07B689B6D43F020027B689A651C
:104A6000012387F8D7307B68002283F8542097F819
:104A7000D7301846D837BD4680BD00BF000008803B
:104A800000030450000052C700000450040000203E
:104A9000632D3E05000084CB0100008080B588B006
:104AA00000AF786039600023FB613B68BB617B68C5
:104AB0001B681846FFF7CEF938617B681B681846FB
:104AC000FFF7EFF9F8603B69002B03D1FB68002B7F
:104AD00000F097807B681B68DB6803F00073002B95
:104AE0002AD07B685B7E012B26D17B681B7E012B45
:104AF00022D10123BB6114E0FB69444A93420DD9E2
:104B00007B689B6D43F010027B689A657B68DB6D68
:104B100043F001027B68DA65012373E0FB6901332E
:104B2000FB617B681B681B6803F04003402BE3D1EB
:104B30007B681B6840221A60BB69022B14D07B681B
:104B40001B681846FFF786F90346002B0CD07B68DC
:104B50001B681846FFF743F90346002B04D17B6816
:104B60001B681846FFF762F9BB69012B14D07B68FC
:104B70001B681846FFF795F90346002B0CD07B689D
:104B80001B681846FFF72BF90346002B04D17B68FE
:104B90001B681846FFF771F9BB69022B04D0032B81
:104BA00005D10C237B6105E008237B6102E004232F
:104BB0007B6100BFFEF744FFB8601BE0FEF740FFDB
:104BC0000246BB68D31A052B14D97B681B689A6808
:104BD0007B691340002B0DD07B689B6D43F0100266
:104BE0007B689A657B68DB6D43F001027B68DA6560
:104BF000012307E07B681B689A687B691340002BE0
:104C0000DCD1002318462037BD4680BDFFFF3FA3FF
:104C100080B584B000AF78607B681B681846FFF7EA
:104C2000CBF80346002B4DD17B681B689A68284B54
:104C30001340002B0DD07B689B6D43F010027B6806
:104C40009A657B68DB6D43F001027B68DA650123BE
:104C500039E07B681B681846FFF786F8FEF7F0FE20
:104C6000F86028E07B681B681846FFF7A5F8034644
:104C7000002B04D17B681B681846FFF775F8FEF718
:104C8000DFFE0246FB68D31A022B14D97B681B682F
:104C90001B6803F00103012B0DD07B689B6D43F073
:104CA00010027B689A657B68DB6D43F001027B68CC
:104CB000DA65012307E07B681B681B6803F00103CA
:104CC000012BCFD1002318461037BD4680BD00BF51
:104CD0003F00008080B584B000AF78607B681B68BF
:104CE0001846FFF77CF8F8607B681B681846FFF7EA
:104CF00063F80346002B47D0FB68002B44D17B6848
:104D00001B689B6803F00D03012B0CD17B681B68AB
:104D10001846FFF73DF87B681B6803221A60FEF710
:104D20008FFEB86029E07B689B6D43F010027B68C2
:104D30009A657B68DB6D43F001027B68DA650123CD
:104D400023E0FEF77DFE0246BB68D31A022B14D97E
:104D50007B681B689B6803F00103002B0DD07B6808
:104D60009B6D43F010027B689A657B68DB6D43F0B6
:104D700001027B68DA65012307E07B681B689B689A
:104D800003F00103002BDCD1002318461037BD4689
:104D900080BD000080B485B000AF78607B6803F010
:104DA0000703FB600C4BDB68BB60BA684FF6FF0380
:104DB0001340BB60FB681A02BB68134343F0BF6338
:104DC00043F40033BB60044ABB68D36000BF1437B0
:104DD000BD465DF8047B704700ED00E080B400AF95
:104DE000044BDB681B0A03F007031846BD465DF859
:104DF000047B704700ED00E080B483B000AF034651
:104E0000FB7197F90730002B0BDB094997F9073045
:104E10005B09FA7902F01F02012000FA02F241F860
:104E2000232000BF0C37BD465DF8047B704700BFF0
:104E300000E100E080B483B000AF03463960FB714D
:104E400097F90730002B0ADB0D4997F907303A68CC
:104E5000D2B21201D2B20B4483F800230AE009490E
:104E6000FB7903F00F03043B3A68D2B21201D2B2CD
:104E70000B441A7600BF0C37BD465DF8047B7047C3
:104E800000E100E000ED00E080B489B000AFF86020
:104E9000B9607A60FB6803F00703FB61FB69C3F14B
:104EA0000703042B28BF0423BB61FB690433062BD3
:104EB00002D9FB69033B00E000237B610122BB694F
:104EC00002FA03F35A1EBB681A407B699A4001211B
:104ED0007B6901FA03F3591E7B680B4013431846A4
:104EE0002437BD465DF8047B7047000080B582B072
:104EF00000AF78607B68013BB3F1807F01D3012371
:104F00000FE00A4A7B68013B53600F214FF0FF30EE
:104F1000FFF790FF054B00229A60044B07221A60AE
:104F2000002318460837BD4680BD00BF10E000E0F2
:104F300080B582B000AF78607868FFF72BFF00BFC4
:104F40000837BD4680BD80B586B000AF0346B96066
:104F50007A60FB7300237B61FFF740FF78617A681A
:104F6000B9687869FFF790FF024697F90F3011464C
:104F70001846FFF75FFF00BF1837BD4680BD80B5FC
:104F800082B000AF0346FB7197F907301846FFF770
:104F900033FF00BF0837BD4680BD80B582B000AF8B
:104FA00078607868FFF7A2FF034618460837BD46C9
:104FB00080BD80B485B000AF78600023FB737B6850
:104FC00093F82530DBB2022B08D07B680422DA6329
:104FD0007B68002283F82420012322E07B681B6881
:104FE0007A681268126822F00E021A607B681B68E9
:104FF0007A681268126822F001021A607B681B6CE2
:105000007A68526C02F01C02012101FA02F25A6025
:105010007B68012283F825207B68002283F8242006
:10502000FB7B18461437BD465DF8047B704780B59E
:1050300084B000AF78600023FB737B6893F8253061
:10504000DBB2022B05D07B680422DA630123FB73F9
:1050500029E07B681B687A681268126822F00E02E9
:105060001A607B681B687A681268126822F0010275
:105070001A607B681B6C7A68526C02F01C0201217A
:1050800001FA02F25A607B68012283F825207B68CE
:10509000002283F824207B689B6B002B03D07B6865
:1050A0009B6B78689847FB7B18461037BD4680BDE0
:1050B00080B487B000AF7860396000237B6154E131
:1050C0003B681A6801217B6901FA03F31340FB6016
:1050D000FB68002B00F046813B685B68012B0BD01E
:1050E0003B685B68022B07D03B685B68112B03D0E1
:1050F0003B685B68122B30D17B689B683B617B69A6
:105100005B00032202FA03F3DB433A6913403B617D
:105110003B68DA687B695B0002FA03F33A69134380
:105120003B617B683A699A607B685B683B610122FE
:105130007B6902FA03F3DB433A6913403B613B6846
:105140005B681B0903F001027B6902FA03F33A6909
:1051500013433B617B683A695A607B68DB683B615B
:105160007B695B00032202FA03F3DB433A691340D5
:105170003B613B689A687B695B0002FA03F33A691A
:1051800013433B617B683A69DA603B685B68022BDA
:1051900003D03B685B68122B23D17B69DA087B68FC
:1051A000083253F822303B617B6903F007039B0010
:1051B0000F2202FA03F3DB433A6913403B613B6879
:1051C0001A697B6903F007039B0002FA03F33A694B
:1051D00013433B617B69DA087B680832396943F81D
:1051E00022107B681B683B617B695B00032202FA2B
:1051F00003F3DB433A6913403B613B685B6803F0B0
:1052000003027B695B0002FA03F33A6913433B61D3
:105210007B683A691A603B685B6803F08053002B37
:1052200000F0A080584A584B1B6E43F001031366F0
:10523000554B1B6E03F00103BB60BB68534A7B698F
:105240009B08023352F823303B617B6903F0030370
:105250009B000F2202FA03F3DB433A6913403B61E0
:105260007B68B3F1904F19D07B68494A934213D0C1
:105270007B68484A93420DD07B68474A934207D0E7
:105280007B68464A934201D1042308E0072306E0E5
:10529000032304E0022302E0012300E000237A69F3
:1052A00002F00302920093403A6913433B6137498D
:1052B0007B699B0802333A6941F82320384B1B680D
:1052C0003B61FB68DB433A6913403B613B685B68C9
:1052D00003F48033002B03D03A69FB6813433B612E
:1052E0002F4A3B6913602E4B5B683B61FB68DB43D5
:1052F0003A6913403B613B685B6803F40033002B61
:1053000003D03A69FB6813433B61254A3B6953600C
:10531000234B9B683B61FB68DB433A6913403B616D
:105320003B685B6803F48013002B03D03A69FB6889
:1053300013433B611A4A3B699360194BDB683B613D
:10534000FB68DB433A6913403B613B685B6803F4ED
:105350000013002B03D03A69FB6813433B61104AEA
:105360003B69D3607B6901337B613B681A687B6969
:1053700022FA03F3002B7FF4A3AE00BF1C37BD4617
:105380005DF8047B704700BF001002400000014040
:105390000004004800080048000C004800100048C5
:1053A0000004014080B485B000AF78600B467B807C
:1053B0007B681A697B881340002B02D00123FB73A2
:1053C00001E00023FB73FB7B18461437BD465DF8F4
:1053D000047B704780B483B000AF78600B467B805D
:1053E00013467B707B78002B03D07A887B689A61A8
:1053F00002E07A887B689A6200BF0C37BD465DF890
:10540000047B704780B582B000AF78607B68002B6A
:1054100001D1012380E07B6893F84130DBB2002B9F
:1054200006D17B68002283F840207868FEF784F874
:105430007B68242283F841207B681B687A681268A5
:10544000126822F001021A607B681B687A68526851
:1054500022F070621A617B681B687A681268926831
:1054600022F400429A607B68DB68012B07D17B68DD
:105470001B687A68926842F400429A6006E07B6892
:105480001B687A68926842F404429A607B68DB6821
:10549000022B04D17B681B684FF400625A607B6862
:1054A0001A687B681B685B6843F0007343F4004331
:1054B00053607B681B687A681268D26822F40042E5
:1054C000DA607B681B687A6811697A6852691143EF
:1054D0007A68926912020A43DA607B681B687A680C
:1054E000D1697A68126A0A431A607B681B687A6815
:1054F0001268126842F001021A607B6800225A6446
:105500007B68202283F841207B6800221A637B6835
:10551000002283F84220002318460837BD4680BD8C
:1055200080B588B002AFF8607A601A460B467B817E
:1055300013463B81FB6893F84130DBB2202B40F0EF
:10554000DA80FB6893F84030012B01D10223D3E0CD
:10555000FB68012283F84020FEF772FA78617B69CC
:105560000093192301224FF40041F86800F0BCFCBD
:105570000346002B01D00123BEE0FB68212283F803
:105580004120FB68102283F84220FB6800225A6405
:10559000FB687A685A62FB683A895A85FB68002280
:1055A0005A63FB685B8D9BB2FF2B0ED9FB68FF2211
:1055B0001A85FB681B8DDAB27989514B00934FF045
:1055C0008073F86800F01EFE6CE0FB685B8D9AB299
:1055D000FB681A85FB681B8DDAB27989484B00930A
:1055E0004FF00073F86800F00DFE5BE07A69396AED
:1055F000F86800F0B9FC0346002B01D001237BE0E2
:10560000FB681B68FA68526A12789A62FB685B6AE8
:105610005A1CFB685A62FB685B8D9BB2013B9AB2D5
:10562000FB685A85FB681B8D013B9AB2FB681A85A3
:10563000FB685B8D9BB2002B34D0FB681B8D002B6D
:1056400030D17B6900933B6A00228021F86800F02A
:105650004BFC0346002B01D001234DE0FB685B8D22
:105660009BB2FF2B0ED9FB68FF221A85FB681B8DAE
:10567000DAB27989002300934FF08073F86800F064
:10568000C1FD0FE0FB685B8D9AB2FB681A85FB6871
:105690001B8DDAB27989002300934FF00073F8680C
:1056A00000F0B0FDFB685B8D9BB2002B9ED17A6948
:1056B000396AF86800F098FC0346002B01D00123FA
:1056C0001AE0FB681B682022DA61FB681A68FB6835
:1056D0001B6859680B4B0B405360FB68202283F812
:1056E0004120FB68002283F84220FB68002283F8F7
:1056F0004020002300E0022318461837BD4680BD35
:105700000020008000E800FE80B588B002AFF8609D
:105710007A601A460B467B8113463B81FB6893F8FF
:105720004130DBB2202B40F0DB80FB6893F8403047
:10573000012B01D10223D4E0FB68012283F8402031
:10574000FEF77EF978617B690093192301224FF4FB
:105750000041F86800F0C8FB0346002B01D001238C
:10576000BFE0FB68222283F84120FB68102283F807
:105770004220FB6800225A64FB687A685A62FB6820
:105780003A895A85FB6800225A63FB685B8D9BB29D
:10579000FF2B0ED9FB68FF221A85FB681B8DDAB23E
:1057A0007989524B00934FF08073F86800F02AFD1E
:1057B0006DE0FB685B8D9AB2FB681A85FB681B8DF8
:1057C000DAB27989494B00934FF00073F86800F022
:1057D00019FD5CE07A69396AF86800F041FC03461B
:1057E000002B01D001237CE0FB685B6AFA68126839
:1057F000526AD2B21A70FB685B6A5A1CFB685A6222
:10580000FB681B8D013B9AB2FB681A85FB685B8DB8
:105810009BB2013B9AB2FB685A85FB685B8D9BB2D9
:10582000002B34D0FB681B8D002B30D17B6900939B
:105830003B6A00228021F86800F056FB0346002BEB
:1058400001D001234DE0FB685B8D9BB2FF2B0ED98D
:10585000FB68FF221A85FB681B8DDAB27989002369
:1058600000934FF08073F86800F0CCFC0FE0FB6809
:105870005B8D9AB2FB681A85FB681B8DDAB2798959
:10588000002300934FF00073F86800F0BBFCFB6846
:105890005B8D9BB2002B9DD17A69396AF86800F064
:1058A000A3FB0346002B01D001231AE0FB681B6811
:1058B0002022DA61FB681A68FB681B6859680C4B88
:1058C0000B405360FB68202283F84120FB680022D4
:1058D00083F84220FB68002283F84020002300E088
:1058E000022318461837BD4680BD00BF0024008043
:1058F00000E800FE80B588B002AFF86008461146A7
:105900001A4603467B810B463B811346FB80FB68AE
:1059100093F84130DBB2202B40F0F9803B6A002B3A
:1059200002D0BB8C002B05D1FB684FF400725A6487
:105930000123EDE0FB6893F84030012B01D10223F5
:10594000E6E0FB68012283F84020FEF779F87861F1
:105950007B690093192301224FF40041F86800F09D
:10596000C3FA0346002B01D00123D1E0FB682122BA
:1059700083F84120FB68402283F84220FB68002224
:105980005A64FB683A6A5A62FB68BA8C5A85FB68AB
:1059900000225A63F8883A8979897B690193BB6A46
:1059A00000930346F86800F0D3F90346002B05D0B6
:1059B000FB68002283F840200123A9E0FB685B8D8F
:1059C0009BB2FF2B0ED9FB68FF221A85FB681B8D4B
:1059D000DAB27989002300934FF08073F86800F001
:1059E00011FC0FE0FB685B8D9AB2FB681A85FB68BF
:1059F0001B8DDAB27989002300934FF00073F868A9
:105A000000F000FC7A69B96AF86800F0ADFA034664
:105A1000002B01D001237BE0FB681B68FA68526A07
:105A200012789A62FB685B6A5A1CFB685A62FB68D0
:105A30005B8D9BB2013B9AB2FB685A85FB681B8D5C
:105A4000013B9AB2FB681A85FB685B8D9BB2002B09
:105A500034D0FB681B8D002B30D17B690093BB6A6F
:105A600000228021F86800F03FFA0346002B01D0A5
:105A700001234DE0FB685B8D9BB2FF2B0ED9FB68C9
:105A8000FF221A85FB681B8DDAB279890023009307
:105A90004FF08073F86800F0B5FB0FE0FB685B8D9A
:105AA0009AB2FB681A85FB681B8DDAB279890023EC
:105AB00000934FF00073F86800F0A4FBFB685B8D67
:105AC0009BB2002B9ED17A69B96AF86800F08CFA13
:105AD0000346002B01D001231AE0FB681B6820223B
